:020000040800F2
:1000000070EE01208902000897020008990200089A
:100010009B0200089D0200089F02000800000000EB
:10002000000000000000000000000000A102000825
:10003000A302000800000000A5020008A7020008B3
:10004000A9020008A9020008A9020008A9020008E4
:10005000A9020008A9020008A9020008A9020008D4
:10006000A9020008A9020008A9020008A9020008C4
:10007000A9020008A9020008E10C0008090D000807
:10008000A9020008A9020008A9020008A9020008A4
:10009000A9020008A9020008A9020008A902000894
:1000A000A9020008D57C0008A9020008A17B00086D
:1000B000A9020008A9020008497D0008A902000859
:1000C000A9020008A9020008A9020008A902000864
:1000D000A9020008D57D0008A9020008A9020008AD
:1000E000A9020008A9020008A9020008A902000844
:1000F000A9020008A9020008A9020008A902000834
:10010000A902000861600008A9020008A90200080D
:10011000A9020008A9020008A9020008A902000813
:10012000A9020008A9020008A9020008A902000803
:10013000A9020008A9020008A9020008A9020008F3
:10014000A9020008A9020008A9020008A9020008E3
:10015000A9020008A9020008A9020008A9020008D3
:10016000A9020008A9020008A9020008A9020008C3
:10017000A9020008A9020008A9020008A9020008B3
:10018000A9020008A902000800F002F800F06DF8CA
:100190000AA090E8000C82448344AAF10107DA45E2
:1001A00001D100F062F8AFF2090EBAE80F0013F0C7
:1001B000010F18BFFB1A43F00103184744F1000078
:1001C00064F100000A444FF0000C10F8013B13F0FA
:1001D000070408BF10F8014B1D1108BF10F8015BA0
:1001E000641E05D010F8016B641E01F8016BF9D193
:1001F00013F0080F1EBF10F8014BAD1C0C1B09D1EA
:100200006D1E58BF01F801CBFAD505E014F8016B5B
:1002100001F8016B6D1EF9D59142D6D370470000ED
:100220000023002400250026103A28BF78C1FBD8FF
:10023000520728BF30C148BF0B607047642900F0E7
:10024000DB80752900F0D880782900F011816329BE
:1002500000F0A383732900F0A883002070471FB526
:100260000DF094F81FBD10B510BD00F0EBFB11466A
:10027000FFF7F5FF0AF04EFA00F009FC03B4FFF7B0
:10028000F2FF03BC08F08FF90B48016841F47001DC
:1002900001600A480047FEE7FEE7FEE7FEE7FEE7EB
:1002A000FEE7FEE7FEE7FEE7FEE70000044805493B
:1002B000034A054B7047000088ED00E08901000803
:1002C00070EA012070EE012070EA0120704710B53D
:1002D0004C1084EA530404D54042C1F1000138BFF8
:1002E000491E1B4204D55242C3F1000338BF5B1EB6
:1002F00000F05CFA14F0804F04D04042C1F10001DC
:1003000038BF491E14F0004F04D05242C3F100031D
:1003100038BF5B1E10BD00000FB4044910B503AA1E
:10032000029800F047FB10BC5DF814FB04000020AD
:100330000FB41CB5074B06AA7B446946009005988C
:1003400000F009FB0020694600F018FB1CBC5DF8BA
:1003500014FB00004106000070B504468569006882
:10036000C10601D5302600E02026C00707D070BDA9
:10037000D4E9012130469047206A401C20626D1E5E
:10038000F6D570BD70B5044685690078C00707D101
:1003900070BDD4E9012120209047206A401C2062D2
:1003A0006D1EF6D570BD70B50C460546012A05D008
:1003B0002878800600D5EA69002302E0012305E0E1
:1003C0005B1C934202D2E05C0028F9D1A869E618D0
:1003D000C01AA861286A184428622846FFF7BCFFA3
:1003E00004E0D5E9012114F8010B9047B442F8D399
:1003F0002846FFF7C7FF70BD2DE9F04106460024EF
:1004000010687529314616A510D0AFF3008000287A
:1004100002DA404213A507E031688A0701D512A528
:1004200002E0490704D511A5012401E0AFF30080E3
:1004300000210A2206F1240709E0B0FBF2FCB0FB20
:10044000F2F302FB1C00303078541846491C002897
:10045000F3D123462A463046BDE8F04100F01DBAEC
:10046000000000002D0000002B0000002000000014
:1004700070B504460D4621461068AFF30080218810
:10048000090502D50F4A7A4402E00E4A7A440E3238
:10049000002104F1240305E000F00F060009965D39
:1004A0005E54491C0028F7D120780023000704D5AA
:1004B000702D02D009B1022311322046BDE87040F0
:1004C00000F0EBB9CEEB00002DE9F05F8946044661
:1004D0004FF0000ADFF874B1FB44C0F820A02046BA
:1004E000E1688847002874D0252806D0D4E9012186
:1004F0009047206A401C2062F1E700265F462046B4
:10050000E16888472028054607DB312D05D2781998
:1005100010F8200C08B10643F1E7B00701D526F02A
:100520000406C4F81CA00027C4F818A02A2D09D07E
:10053000284608F031F838B304EB8708303DC8F896
:10054000185019E059F8041B204604EB870291610A
:10055000E1688847012F054618D1E069002820DAB4
:1005600026F020061DE0D8F8180000EB800005EB0F
:1005700040003038C8F818002046E1688847054632
:1005800008F00AF80028EED1012F0AD02E2D08D14C
:100590002046E16888477F1C0546022F46F020066A
:1005A000C4DBA069002803DA404246F00106A061DE
:1005B000F00701D026F010066C2D0BD0682D09D065
:1005C0004C2D39D06A2D35D0742D35D07A2D33D0BD
:1005D00016E038E0E1682F4620468847B8420546D5
:1005E00009D16C2F26D04FF48060E1680643204685
:1005F0008847054604E06C2F1AD04FF480700643FC
:100600000DB3A5F14100192802D8203546F4006643
:100610004A462946204626604E46FFF70FFE80B127
:1006200001280BD0F61D26F0070000F1080956E757
:100630004020E4E78020D8E70020D6E706F104094F
:100640004DE7284652E7206ABDE8F09FA4EB000082
:1006500040EA0103024630B59B0710D14FF0013448
:1006600000E008C208C91D1B9D4315EAC41FF8D04D
:1006700013F0FF0102F8011B0DD01B0AF8E711F877
:10068000013B002B02F8013B05D011F8013B002B88
:1006900002F8013BF3D130BD032A40F2308010F064
:1006A000030C00F0158011F8013BBCF1020F62440D
:1006B00098BF11F801CB00F8013B38BF11F8013B9E
:1006C000A2F1040298BF00F801CB38BF00F8013B4B
:1006D00011F0030300F08081083AC0F0088051F85F
:1006E000043B083A51F804CBA0E80810F5E7121DC6
:1006F0005CBF51F8043B40F8043BAFF30080D207E5
:1007000024BF11F8013B11F801CB48BF11F8012BB0
:1007100024BF00F8013B00F801CB48BF00F8012BD3
:10072000704700004FF0013C50F8042B51F8043B97
:100730009A4221D1A2EB0C03934313EACC1317D1B5
:1007400050F8042B51F8043B9A4215D1A2EB0C034C
:10075000934313EACC130BD150F8042B51F8043B0C
:100760009A4209D1A2EB0C03934313EACC13DBD0DA
:100770004FF00000704700BFD01A01BAB1FA81F102
:1007800001F0180122FA01F0CB40C1F12001DBB2E7
:10079000C0B2C01A2CFA01F3D11A914311EAC31165
:1007A000E6D17047704770477047704753EA020CB4
:1007B00000F069802DE9F04B4FF00006002B1FBFC1
:1007C000B3FA83F503FA05F424FA05F65E4012BF86
:1007D0001643B2FA82F502FA05F4C5F120051EBFF0
:1007E00022FA05FC44EA0C04203556EA044C4FEA90
:1007F000144418BF641C4FF000084FF000099042E9
:1008000071EB030C39D3002919BFB1FA81F701FA52
:1008100007F6B0FA80F700FA07F6C7F120071EBF07
:1008200020FA07FC46EA0C062037B6FBF4FCA7EBDF
:100830000507103F07F01F0BCBF120060CFA0BFB4E
:100840002CFA06F644BFB3460026202FA4BF5E460E
:100850004FF0000B5BEA060C08BF4FF0010B19EBE1
:100860000B09ABFB027C48EB0608C01B06FB02CC65
:100870000BFB03CC71EB0C01C1E70B460246414672
:100880004846BDE8F08B13B54FF000004FF0000173
:10089000AFF30080BDE81C4070472DE9F0470D46DE
:1008A00099469246044600F124080168880604D55A
:1008B000E06921F01001216000E00120A84201DD83
:1008C000471B00E00027A1697A1902EB0900081A0A
:1008D000A0612078C00602D42046FFF73DFD002627
:1008E00008E0D4E901211AF806009047206A401C6C
:1008F000761C20624E45F4DB2078C0060AD52046DF
:10090000FFF72AFD06E0D4E9012130209047206A54
:10091000401C2062381EA7F10107F4DC07E0D4E98F
:10092000012118F805009047206A401C2062281E0B
:10093000A5F10105F3DC2046FFF724FD2078000631
:1009400002D50220BDE8F0870120FBE701694A1CBF
:1009500002610878704700B58FB0CDE90131002100
:10096000059105497944CDE9031011466846FFF722
:10097000ABFD0FB000BD0000E5FFFFFF0A6802F805
:10098000010B0A60704710B5436913B1AFF30080E3
:1009900001E0FFF708FD012010BD127800F12401ED
:1009A0000A7000224A700122EDE711684FF0FF3211
:1009B000E9E70000074B70B50D467B44FFF7CBFF1E
:1009C0000446284600F03AF810B14FF0FF3070BDF1
:1009D000204670BD1B9B000010B5203AC0F00B8074
:1009E000B1E81850203AA0E81850B1E81850A0E833
:1009F0001850BFF4F5AF5FEA027C24BFB1E818508D
:100A0000A0E8185044BF18C918C0BDE810405FEAFC
:100A1000827C24BF51F8043B40F8043B08BF704778
:100A2000D20728BF31F8023B48BF11F8012B28BF7D
:100A300020F8023B48BF00F8012B7047007B00F014
:100A400080007047754600F029F8AE4605006946FB
:100A5000534620F00700854618B020B5FFF726FC66
:100A6000BDE820404FF000064FF000074FF00008AF
:100A70004FF0000B21F00701AC46ACE8C009ACE830
:100A8000C009ACE8C009ACE8C0098D46704704460F
:100A9000AFF300802046FFF7F1FB000000487047ED
:100AA00010EA012000224FF4803105E00A48006876
:100AB00000F0800000B103E00800A1F10101F5D1D0
:100AC00000BF09B90320704740F2FF50024B1B1DC5
:100AD00018601046F7E70000342C0140024605E09C
:100AE0001548016801F0450000B100E0F8E700BFDB
:100AF00001F0040028B104200F4B1B1D18600320D7
:100B0000704701F0010020B101200B4B1B1D186044
:100B1000F6E7094824380068904201D01020EFE73A
:100B200040F2FF50044B1B1D18600348203800683A
:100B300008231840C0B2E3E7342C014010B5002070
:100B40004FF4803205E0164B196801F0450303B1FC
:100B500003E01300A2F10102F5D100BF12B101F0D0
:100B600004034BB103200E4B1B1D1B6843F0040311
:100B70000B4C241D236010BD01F0010343B1012083
:100B8000074B1B1D1B6843F00103054C241D23600C
:100B900040F2FF53024C241D236000BFEBE700002E
:100BA000342C014005E00E48016801F0450000B119
:100BB00000E0F8E700BF01F0040048B10848001D5C
:100BC000006840F00400064A121D106003207047C0
:100BD00040F2FF50024A121D10600020F7E70000AB
:100BE000342C014070B503460C46002505E024482E
:100BF000026802F0450000B100E0F8E700BF02F033
:100C0000040048B11E48001D006840F004001C4E5E
:100C1000361D3060032070BD02F0010048B1184855
:100C2000001D006840F00100154E361D30600120A7
:100C3000F1E7134824380068984201D01020EAE711
:100C400040F2FF500E4E361D30600D4820380168CE
:100C500001F4604018B9080C20802846DBE701F455
:100C6000005008B11320D6E701F4804008B11020ED
:100C7000D1E701F4004008B10F20CCE72846CAE7CD
:100C8000342C014010B500204FF4803205E0134BA6
:100C9000196801F0450303B103E01300A2F101025A
:100CA000F5D100BF12B101F004034BB103200B4B8F
:100CB0001B1D1B6843F00403084C241D236010BD5A
:100CC00001F0400343B10020044B1B1D1B6843F09F
:100CD0004003024C241D236000BFF0E7342C014088
:100CE00010B50748006800F0006040B10448806813
:100CF00040F000600249886002480068804710BDEB
:100D0000006002402800002010B50748406800F04D
:100D1000200040B10448C06840F020000249C8608B
:100D200002480068804710BD006002402400002097
:100D3000FCB507460D4600260024002000900190D7
:100D400008220121102005F08FF91020FFF7C6FEC0
:100D500004460CB12046FCBD3A040121372005F0C1
:100D600083F93720FFF7BAFE04460CB12046F2E7BC
:100D7000012303220821101F05F08CF90022012114
:100D8000332005F071F93320FFF7A8FE04460CB1BB
:100D90002046E0E70DE03C48006800F4001040B158
:100DA00039484C3000684DF82600761C022E00D3DE
:100DB00006E03548006840F22A6108400028EAD081
:100DC00000BF3148006800F0080048B12E48001DFF
:100DD000006840F008002C49091D08600420BAE7AB
:100DE0002948006800F0020048B12748001D00684B
:100DF00040F002002449091D08600220ABE72248A8
:100E0000006800F0200048B11F48001D006840F055
:100E100020001D49091D086006209CE71A4800684B
:100E200000F4007048B11848001D006840F40070DC
:100E30001549091D086007208DE740F2FF5012494F
:100E4000091D086000980006009901F47F4140EAFE
:100E50000120009901F47F0140EA1120009940EA45
:100E60001160686001980006019901F47F4140EA31
:100E70000120019901F47F0140EA1120019940EA23
:100E800011602860204666E7342C014030B5CC1054
:100E900000F1200353F824304C07E50E0F24AC403A
:100EA000A343CD1000F1200444F82530CC1000F10C
:100EB000200353F824304C07E40E02FA04F42343D1
:100EC000CD1000F1200444F8253030BD2DE9F04765
:100ED0000C46DDE90867002100258C4600BF60E074
:100EE0004FF0010808FA01F504EA050CAC4557D1AA
:100EF000D0F800804FEA410A4FF0030909FA0AF9D5
:100F000028EA0908C0F80080D0F800804FEA4109BB
:100F100002FA09F948EA0908C0F80080012A01D05C
:100F2000022A27D1D0F808804FEA410A4FF003097E
:100F300009FA0AF928EA0908C0F80880D0F80880F8
:100F40004FEA410906FA09F948EA0908C0F8088099
:100F5000D0F804904FF0010808FA01F829EA0809CE
:100F6000C0F80490D0F8048003FA01F948EA0908AF
:100F7000C0F80480D0F80C804FEA410A4FF0030912
:100F800009FA0AF928EA0908C0F80C80D0F80C80A0
:100F90004FEA410907FA09F948EA0908C0F80C8044
:100FA000491C10299CD3BDE8F08700002DE9F05FB3
:100FB00082460F4614462046E21704EB5272D210C6
:100FC0002146E31704EB5373DB10A4EBC3030BB10F
:100FD000012300E000231A44624302F0FF099AF85B
:100FE00000600AF1010082460578812E05DB402D64
:100FF00003DBFF2D01D0FF2E0DD14FF0000B06E0DB
:10100000002007F8010B0BF1010000F0FF0BCB45AE
:10101000F6DBBDE8F09F7F2D03DAA5F14000C5B2F5
:1010200002E0A5F14100C5B2A6F18100C6B2BE2022
:1010300010FB065000FB09F80C2C04D0102C0CD02F
:10104000182C1ED113E01048D0F8090000EB08015D
:101050004A46384606F06AFF13E00B48D0F8110004
:1010600000EB08014A46384606F060FF09E00648F2
:10107000D0F8190000EB08014A46384606F056FF42
:1010800000BF00BF00BFC4E7BCE9012030B5284C59
:10109000246844F48044264D2C60254C203C246870
:1010A00044F48044224D203D2C602C46246824F4D6
:1010B00080442C6000241F4D2C8002242D1D2C8088
:1010C0002C1F248844F400642D1F2C802C46248877
:1010D00044EA01242C802C46248844EA00142C8005
:1010E0002C46248844EAC2042C803BB12C46248838
:1010F00044F001042C805C1EE3B203E00D4C248814
:101100000C4D2C800B4C248844EA4304094D2C8060
:10111000084C183C248844F00204064D183D2C80ED
:10112000044C248844F48064024D2C8030BD0000BF
:10113000403802401C38004010B503460021002210
:101140000A20B3FBF0F300BF09E001EB8100234C60
:1011500034F81000984200D103E0481CC1B20B29BA
:10116000F3D300BF1E48006820F080601C4C206054
:101170000B2901D1012010BD01EB8100174C04EBBC
:101180004000408842EA801201EB810004EB4000FD
:10119000007942EA00721248843002601048006808
:1011A00040F080600E4C206000BF0D48006800F0E9
:1011B00000600028F9D001EB8100084C04EB4000EE
:1011C000C28801EB810004EB4000008942EA002262
:1011D00042F40072034C22800020CCE756EB00085A
:1011E000003802402038004070B504460D461646CF
:1011F0003448006840F400103249086000BF3248AB
:10120000006F00F001000028F9D12F48C06840F0BD
:101210003D002D49C86021202B49843108602B48AE
:10122000294988670846C467C0F88050466700208F
:1012300008670846006F40F0400008670846006FE6
:1012400040F4807008670846006F08670846006F22
:1012500040F4806008670846006F40F4006008674B
:101260000846006F40F4005008670846006F40F4DD
:10127000003008670846006F40F480200867084681
:10128000006F08670846006F08670846006F086728
:101290000846D0F8840020F00400C1F88400084615
:1012A000D0F8840020F00300C1F884000846006FE5
:1012B00040F01000086702230F220021084604F0C6
:1012C0009DFD70BD30380240006002400C38004087
:1012D00030B500241D4D2C8002242D1D2C802C1F88
:1012E000248844F400642D1F2C802C46248844EA72
:1012F00001242C802C46248844EA00142C802C469F
:10130000248844EAC2042C803BB12C46248844F053
:1013100001042C805C1EE3B203E00C4C24880B4DCE
:101320002C800A4C248844EA4304084D2C80074C46
:10133000183C248844F00104044D183D2C80034CD3
:10134000248844F48064014D2C8030BD1C3400405E
:1013500070B504460D4616463048006840F400104B
:101360002E49086000BF2E48806D00F00100002863
:10137000F9D12B48806840F07460294988602120A9
:10138000C86628480866084644668566C665002023
:1013900088650846806D88650846806D40F48070D9
:1013A00088650846806D88650846806D40F48060D9
:1013B00088650846806D40F4006088650846806D49
:1013C00040F4005088650846806D40F480308865A0
:1013D0000846806D40F4802088650846806D8865E9
:1013E0000846806D88650846806D40F0C06088655D
:1013F0000846C06E20F00400C8660846C06E20F0A3
:101400000300C8660846806D40F01000886502231E
:101410000E220121002004F0F1FC70BD30380240A2
:10142000006002400C3400400348006F40F00100AF
:101430000149086770470000006002400348006FE0
:1014400020F0010001490867704700000060024079
:101450000348806D40F00100014988657047000035
:10146000006002400348806D20F00100014988655A
:1014700070470000006002401CB50C48006840F056
:1014800002000A4908600120022100230246CDE93A
:1014900000104FF440710648FFF718FD0120054980
:1014A00008600549C1F8A4021CBD000030380240A4
:1014B00000040240A08240420080404270B50446D1
:1014C0001548006820F44020134908600846006869
:1014D00040F480200860002010490860002517E0D3
:1014E000E0090E49091D08606006040E022007F09D
:1014F000C5FB01200A49C1F8A002022007F0BEFB8B
:10150000002006490860022007F0B8FB681CC5B23D
:10151000082DE5DB70BD000000040240A0824042BF
:101520000080404210B50F48006820F440200D496B
:1015300008600846006840F48020086001200A49DD
:1015400008600A49C1F8A002042007F097FB0020B8
:1015500005490860042007F091FB00200349C1F809
:10156000A00210BD00040240A4824042008040421C
:1015700010B50F48006820F440200D490860084667
:10158000006840F48020086000200A4908600A4989
:10159000C1F8A402042007F071FB0120054908608E
:1015A0000549C1F8A402042007F068FB10BD000043
:1015B00000040240A08240420080404210B5002456
:1015C0001348006820F4402011490860084600686C
:1015D000086001200F49086007F050FB01200E4908
:1015E000C1F8A00207F04AFB07E0601CC4B2FA2C65
:1015F00003DDFFF7BDFF012010BD064880380068FD
:101600000028F2D10349091F086000BFF4E7000079
:1016100000040240A48240420080404272B67047FB
:1016200062B670471CB50446002001900090224825
:101630000088020401210D2004F016FD1F480068F7
:10164000009002E01D4800680090009800F04500FE
:101650000028F7D0009800F0010048B11748001D9D
:10166000006840F001001549091D086001201CBDFB
:10167000009800F0040048B11048001D006840F0D8
:1016800004000E49091D08600320F0E70B482438C8
:1016900000680D2801D01020E9E740F2FF5007490B
:1016A000091D086005482038006801900198C0F3C2
:1016B000432020700020DAE714000020342C014081
:1016C0001CB51048006840F001000E49086008464B
:1016D000006840F010000860012000210B460A4617
:1016E000CDE900101C210848FFF7F0FB0220002183
:1016F0000B460A46CDE9001001210448FFF7E6FB3E
:101700001CBD0000303802400010024000000240C2
:1017100010B5044614B1012023490870224800780E
:1017200058B32248006858B12048001F006838B1FB
:101730001E480838006818B11D48006801281CD1EF
:101740000A2007F07FFA0020174908701748006840
:1017500008B9012010BD1548001F006808B9022013
:10176000F8E712480838006808B90320F2E7104883
:101770000068012815D10420ECE70C480068012816
:101780000FD10A48001F006801280AD1074808380D
:101790000068012805D10648006810B901200249F7
:1017A00008700020D6E700000E0000201002424220
:1017B0000002404270B5044600261748058840885C
:1017C00045431548808846F60401884216D11248E0
:1017D0008079012812D100200F4988712A20488180
:1017E0002B2088810021084604F078F801200A495E
:1017F00088712B2048812A20888103E00021084637
:1018000004F06CF804F0C6FA002602E003480480F5
:10181000761CAE42FAD370BD500300208000006CED
:1018200010B50446002C66D16C498871F020088000
:101830004FF4A07048800846808849F241318842C0
:101840000BD06648808846F60401884205D063487C
:10185000808845F2103188421AD12C205F490881D6
:101860002A2048812B2088810846808846F604017A
:10187000884205D05948808845F21031884206D107
:101880004FF4A070554908804FF4F0704880A1E0F3
:101890005248808845F21051884210D14FF43050A0
:1018A0004E4908814FF4285048814FF42C508881CC
:1018B0004FF4F07008804FF4487048808AE0474841
:1018C000808841F6631188420DD12C20434908815C
:1018D0002B2048812A2088814FF4F07008804FF433
:1018E0004870488076E022203C49088120204881C9
:1018F000212088816EE00120384988714FF4A07062
:101900000880F02048800846808849F241318842AA
:1019100005D03248808845F21031884207D12C200A
:101920002E4908812A2048812B2088813FE02B48BE
:10193000808846F60401884207D12C202749088177
:101940002B2048812A20888131E02448808845F274
:101950001051884210D14FF43050204908814FF483
:10196000285048814FF42C5088814FF448700880EB
:101970004FF4F07048801AE01848808841F66311EF
:1019800088420DD12C20154908812A2048812B201E
:1019900088814FF4487008804FF4F070488006E06A
:1019A00022200E49088121204881202088810B486F
:1019B000808846F60401884205D00848808845F2B0
:1019C0001031884206D14FF4F070044908804FF47A
:1019D000A0704880002003F00BFE10BD50030020D3
:1019E00070B504460D4616465B48808849F2413181
:1019F000884205D05848808845F21031884214D179
:101A00005549488904F0BAF9201204F0ABF9E0B264
:101A100004F0A8F95049888904F0B0F9281204F0BC
:101A2000A1F9E8B204F09EF98CE04B48808845F2B9
:101A30001051884220D14849488904F09FF920126A
:101A400004F090F944494989491C88B204F096F998
:101A5000E0B204F087F94049888904F08FF9281230
:101A600004F080F93C498989491C88B204F086F960
:101A7000E8B204F077F965E03748808841F66311F1
:101A8000884228D13448807920B933480088401EE4
:101A9000001B84B23049488904F070F9201204F028
:101AA00061F9E0B204F05EF9201204F05BF9E0B2F3
:101AB00004F058F92849888904F060F9281204F0E4
:101AC00051F9E8B204F04EF9281204F04BF9E8B2EB
:101AD00004F048F936E02048808846F60401884240
:101AE0001DD11D488079012804D11B480088401E63
:101AF000001B84B21849488904F040F9201204F010
:101B000031F9E0B204F02EF91349888904F036F96E
:101B1000281204F027F9E8B204F024F912E00E4884
:101B20008079012804D10C480088401E001B84B233
:101B300009494889214604F037F907498889294627
:101B400004F032F904480089044908804FF0D84075
:101B5000A0F8806070BD0000500300207E00006C83
:101B60002DE9FC4F05460E4617469846DDF82C90A9
:101B7000002001902748808846F60401884229D138
:101B800024488079012825D1AB4635462148008874
:101B9000C01B401E86B247461E480088A0EB0B00C3
:101BA000401E1FFA80F800201A4988712A204881B7
:101BB0002B20888143463A4631462846CDF800908E
:101BC000FFF7CEFF0120134988712B2048812A207E
:101BD00088811DE0781B401C80B20190344615E0DE
:101BE0002146284603F07AFE04F0D4F84FF0000AAC
:101BF00007E04FF0D840A0F880900AF101001FFAEA
:101C000080FA01988245F4DB601C84B24445E7DD2C
:101C1000BDE8FC8F500300201CB5FE48006840F072
:101C20007800FC4908600846006840F0020008603F
:101C3000F8480830006840F00100F64908310860B3
:101C40000120022100230246CDE90010C103F24821
:101C5000FFF73CF90120032100230222CDE9001007
:101C60004CF23371ED48FFF731F9012003210023D5
:101C70000222CDE900104FF68071E948FFF726F9FE
:101C80000120032100230222CDE900100103E548D1
:101C9000FFF71CF90120032100230222CDE90010E7
:101CA0000103E148FFF712F90C220021DB48FFF79E
:101CB000EDF80C220121D948FFF7E8F80C220421A5
:101CC000D648FFF7E3F80C220521D448FFF7DEF8E9
:101CD0000C220821D148FFF7D9F80C220921CF485E
:101CE000FFF7D4F80C220A21CC48FFF7CFF80C22DA
:101CF0000E21CA48FFF7CAF80C220F21C748FFF788
:101D0000C5F80C220721C648FFF7C0F80C220821AD
:101D1000C348FFF7BBF80C220921C148FFF7B6F80A
:101D20000C220A21BE48FFF7B1F80C220B21BC4857
:101D3000FFF7ACF80C221146B948FFF7A7F80C22C0
:101D40000D21B748FFF7A2F80C220E21B448FFF787
:101D50009DF80C220F21B248FFF798F80C2211468B
:101D6000B048FFF793F80C221146AF48FFF78EF802
:101D700000204FF020418861C861AC4908604FF0F5
:101D80002040806940F480504FF02041886108462F
:101D9000806940F4804088610846806940F0100006
:101DA00088610846C069C8610846C06940F00F00F4
:101DB000C8610846C06940F47050C8619B4800681B
:101DC000C1F81C010846D0F81C0140F00900C1F818
:101DD0001C010846D0F81C0140F40060C1F81C0149
:101DE0000846806940F001008861322006F02AFF31
:101DF0000121002003F0D8FF322006F023FF00204D
:101E000003F0BAFB8A49888008468088FF280ADBED
:101E1000084680884FF6FF71884204D08448808845
:101E2000B0F5134F7ED1D32003F0A8FF03F09AFB47
:101E30007F49888003F096FB7D49888003F092FB00
:101E40007B498880084680884FF6FF7101EA0020B0
:101E50007749888003F086FB75498988084374496F
:101E600088800846808849F2413188425AD0BF2094
:101E700003F084FF03F076FB6D49888003F072FB6A
:101E80006B49888003F06EFB6949888003F06AFB28
:101E900067498880084680884FF6FF7101EA002074
:101EA0006349888003F05EFB614989880843604983
:101EB00088800846808846F6040188427AD0D4207B
:101EC00003F05CFF03F04EFB5949888003F04AFBA6
:101ED0005749888003F046FB55498880084680882A
:101EE0004FF6FF7101EA00205149888003F03AFB68
:101EF0004F49898808434E4988800846808845F2C2
:101F00001031884256D04FF45A4003F037FF03F0A7
:101F100029FB474988804FF45B4003F02FFF03F013
:101F200021FB00E046E042498880084680884FF661
:101F3000FF7101EA00203E4988804FF45C4003F0C5
:101F40001DFF03F00FFB3A49898808433849888010
:101F500008468088B0F5004F02D145F210508880C5
:101F60003348808845F21051884223D0A12003F0E5
:101F700005FF03F0F7FA2E49888003F0F3FA2C49A5
:101F80008880084680884FF6FF7101EA00202849C2
:101F9000888003F0E7FA2649898808432449888025
:101FA0000846808845F26171884203D141F663108A
:101FB0001F4988801E48808849F24131884211D0EB
:101FC0001B48808845F2103188420BD01848808821
:101FD00045F21051884205D01548808841F66311BA
:101FE00088422ED11148006820F00F004FF02041A8
:101FF000C1F81C010846D0F81C0120F47060C1F83B
:102000001C010846D0F81C0140F00300C1F81C0177
:1020100008460FE03038024000040240000C024045
:102020000010024000140240001802401C0100A0F1
:1020300050030020D0F81C0140F40070C1F81C01CE
:1020400028E0FE48808846F60401884205D0FB4817
:1020500080884CF2055188421CD1F948006820F074
:102060000F004FF02041C1F81C010846D0F81C01B8
:1020700020F47060C1F81C010846D0F81C0140F043
:102080000A00C1F81C010846D0F81C0140F4406069
:10209000C1F81C01E9488188EAA0FEF73DF9E7484C
:1020A000808849F2413188427ED1CF2003F066FE1C
:1020B000002003F057FEC12003F054FE302003F04F
:1020C00051FEED2003F05AFE642003F04BFE032086
:1020D00003F048FE122003F045FE812003F042FE8B
:1020E000E82003F04BFE852003F03CFE102003F0B7
:1020F00039FE7A2003F036FECB2003F03FFE392074
:1021000003F030FE2C2003F02DFE002003F02AFE09
:10211000342003F027FE022003F024FEF72003F012
:102120002DFE202003F01EFEEA2003F027FE0020F3
:1021300003F018FE002003F015FEC02003F01EFE81
:102140001B2003F00FFEC12003F018FE012003F056
:1021500009FEC52003F012FE302003F003FE3020FC
:1021600003F000FEC72003F009FEB72003F0FAFDDC
:10217000362003F003FE482003F0F4FD3A2003F07C
:10218000FDFD552003F0EEFDB12003F0F7FD00202A
:1021900003F0E8FD1A2003F0E5FDB62003F0EEFDA4
:1021A0000A2003F0DFFD00E097E0A22003F0DAFD53
:1021B000F22003F0E3FD002003F0D4FD262003F01D
:1021C000DDFD012003F0CEFDE02003F0D7FD0F2060
:1021D00003F0C8FD2A2003F0C5FD282003F0C2FD4E
:1021E000082003F0BFFD0E2003F0BCFD082003F023
:1021F000B9FD542003F0B6FDA92003F0B3FD432040
:1022000003F0B0FD0A2003F0ADFD0F2003F0AAFD9E
:10221000002003F0A7FD002003F0A4FD002003F040
:10222000A1FD002003F09EFDE12003F0A7FD0020AA
:1022300003F098FD152003F095FD172003F092FDA3
:10224000072003F08FFD112003F08CFD062003F022
:1022500089FD2B2003F086FD562003F083FD3C20F2
:1022600003F080FD052003F07DFD102003F07AFDD2
:102270000F2003F077FD3F2003F074FD3F2003F0B3
:1022800071FD0F2003F06EFD2B2003F077FD002081
:1022900003F068FD002003F065FD012003F062FDFE
:1022A0003F2003F05FFD2A2003F068FD002003F0CB
:1022B00059FD002003F056FD002003F053FDEF20F0
:1022C00003F050FD112003F059FD782006F0BAFC10
:1022D000292003F053FD03F029B95848808846F6B9
:1022E000040188427ED1112003F048FD142006F03D
:1022F000A9FCD02003F042FD072003F033FD42206B
:1023000003F030FD1D2003F02DFDD12003F036FD3C
:10231000002003F027FD1A2003F024FD092003F01C
:1023200021FDD22003F02AFD012003F01BFD222015
:1023300003F018FDC02003F021FD102003F012FD72
:102340003B2003F00FFD002003F00CFD022003F002
:1023500009FD112003F006FDC52003F00FFD032049
:1023600003F000FDC82003F009FD002003F0FAFC93
:10237000252003F0F7FC212003F0F4FC052003F0F6
:10238000F1FC002003F0EEFC0A2003F0EBFC6520DA
:1023900003F0E8FC252003F0E5FC772003F0E2FCE5
:1023A000502003F0DFFC0F2003F0DCFC002003F0E2
:1023B000D9FCF82003F0E2FC012003F0D3FCFE205E
:1023C00003F0DCFC002003F0CDFC022003F0CAFC8B
:1023D000202003F0D3FC362003F0D0FC082003F0CB
:1023E000C1FC00E036E03A2003F0C8FC552003F0C1
:1023F000B9FC2B2003F0C2FC002003F0B3FC00204A
:1024000003F0B0FC012003F0ADFC3F2003F0AAFC78
:102410002A2003F0B3FC002003F0A4FC002003F00A
:10242000A1FC012003F09EFCDF2003F09BFC782040
:1024300006F008FC292003F0A1FC4CE75003002023
:102440001C0100A0204C43442049443A25780D0A41
:1024500000000000FE48808845F21031884240F0BC
:102460007C87ED2003F08AFC012003F07BFCFE203A
:1024700003F078FCEE2003F081FCDE2003F072FC18
:10248000212003F06FFCF12003F078FC012003F021
:1024900069FCDF2003F072FC102003F063FCC42011
:1024A00003F06CFC8F2003F05DFCC62003F066FC9B
:1024B000002003F057FCE22003F054FCE22003F07C
:1024C00051FCE22003F04EFCBF2003F057FCAA2091
:1024D00003F048FCB02003F051FC0D2003F042FC57
:1024E000002003F03FFC0D2003F03CFC002003F033
:1024F00039FC112003F036FC002003F033FC1920D6
:1025000003F030FC002003F02DFC212003F02AFC16
:10251000002003F027FC2D2003F024FC002003F012
:1025200021FC3D2003F01EFC002003F01BFC5D207D
:1025300003F018FC002003F015FC5D2003F012FCF2
:10254000002003F00FFCB12003F018FC802003F002
:1025500009FC002003F006FC8B2003F003FC0020A4
:1025600003F000FC962003F0FDFB002003F0FAFBD3
:10257000B22003F003FC002003F0F4FB002003F082
:10258000F1FB022003F0EEFB002003F0EBFB032045
:1025900003F0E8FB002003F0E5FBB32003F0EEFBC3
:1025A000002003F0DFFB002003F0DCFB002003F041
:1025B000D9FB002003F0D6FB002003F0D3FB002062
:1025C00003F0D0FB002003F0CDFB002003F0CAFB9A
:1025D000002003F0C7FB002003F0C4FB002003F041
:1025E000C1FB002003F0BEFB002003F0BBFB00207A
:1025F00003F0B8FB002003F0B5FB002003F0B2FBB2
:10260000002003F0AFFB002003F0ACFB002003F040
:10261000A9FB002003F0A6FB002003F0A3FB002091
:1026200003F0A0FB002003F09DFB002003F09AFBC9
:10263000B42003F0A3FB8B2003F094FB002003F0F5
:1026400091FB962003F08EFB002003F08BFBA12072
:1026500003F088FB002003F085FBB52003F08EFB20
:10266000022003F07FFB002003F07CFB032003F03B
:1026700079FB002003F076FB042003F073FB0020BD
:1026800003F070FBB62003F079FB002003F06AFB37
:10269000002003F067FBB72003F070FB002003F07D
:1026A00061FB002003F05EFB3F2003F05BFB00209A
:1026B00003F058FB5E2003F055FB002003F052FBB3
:1026C000642003F04FFB002003F04CFB8C2003F050
:1026D00049FB002003F046FBAC2003F043FB002045
:1026E00003F040FBDC2003F03DFB002003F03AFB4D
:1026F000702003F037FB002003F034FB902003F040
:1027000031FB002003F02EFBEB2003F02BFB00201D
:1027100003F028FBDC2003F025FB002003F022FB64
:10272000B82003F02BFB002003F01CFB002003F07B
:1027300019FB002003F016FB002003F013FB002020
:1027400003F010FB002003F00DFB002003F00AFB58
:10275000002003F007FBBA2003F010FB242003F055
:1027600001FB002003F0FEFA002003F0FBFA00203A
:1027700003F0F8FAC12003F001FB202003F0F2FA85
:10278000002003F0EFFA542003F0ECFA002003F0ED
:10279000E9FAFF2003F0E6FA002003F0E3FAC22092
:1027A00003F0ECFA0A2003F0DDFA002003F0DAFA75
:1027B000042003F0D7FA002003F0D4FAC32003F07A
:1027C000DDFA3C2003F0CEFA002003F0CBFA3A20E9
:1027D00003F0C8FA002003F0C5FA392003F0C2FA6A
:1027E000002003F0BFFA372003F0BCFA002003F00A
:1027F000B9FA3C2003F0B6FA002003F0B3FA362011
:1028000003F0B0FA002003F0ADFA322003F0AAFA88
:10281000002003F0A7FA2F2003F0A4FA002003F011
:10282000A1FA2C2003F09EFA002003F09BFA292045
:1028300003F098FA002003F095FA262003F092FAAC
:10284000002003F08FFA242003F08CFA002001E02E
:102850005003002003F086FA242003F083FA0020BE
:1028600003F080FA232003F07DFA002003F07AFAC7
:102870003C2003F077FA002003F074FA362003F0CE
:1028800071FA002003F06EFA322003F06BFA002098
:1028900003F068FA2F2003F065FA002003F062FAD3
:1028A0002C2003F05FFA002003F05CFA292003F0EB
:1028B00059FA002003F056FA262003F053FA0020BC
:1028C00003F050FA242003F04DFA002003F04AFAF6
:1028D000242003F047FA002003F044FA232003F0F9
:1028E00041FA002003F03EFAC42003F047FA6220C8
:1028F00003F038FA002003F035FA052003F032FA2D
:10290000002003F02FFA842003F02CFA002003F0BB
:1029100029FAF02003F026FA002003F023FA182009
:1029200003F020FA002003F01DFAA42003F01AFAA5
:10293000002003F017FA182003F014FA002003F027
:1029400011FA502003F00EFA002003F00BFA0C20CD
:1029500003F008FA002003F005FA172003F002FA4A
:10296000002003F0FFF9952003F0FCF9002003F0AC
:10297000F9F9F32003F0F6F9002003F0F3F9E6206B
:1029800003F0F0F9002003F0EDF9C52003F0F6F9AB
:10299000322003F0E7F9002003F0E4F9442003F0CB
:1029A000E1F9002003F0DEF9652003F0DBF90020F7
:1029B00003F0D8F9762003F0D5F9002003F0D2F91E
:1029C000882003F0CFF9002003F0CCF9C62003F0F3
:1029D000D5F9202003F0C6F9002003F0C3F9172031
:1029E00003F0C0F9002003F0BDF9012003F0BAF9AB
:1029F000002003F0B7F9C72003F0C0F9002003F06E
:102A0000B1F9002003F0AEF9002003F0ABF900208B
:102A100003F0A8F9C82003F0B1F9002003F0A2F9EF
:102A2000002003F09FF9002003F09CF9002003F040
:102A300099F9C92003F0A2F9002003F093F90020CE
:102A400003F090F9002003F08DF9002003F08AF9DB
:102A5000002003F087F9002003F084F9002003F040
:102A600081F9002003F07EF9002003F07BF90020BB
:102A700003F078F9002003F075F9002003F072F9F3
:102A8000002003F06FF9002003F06CF9002003F040
:102A900069F9002003F066F9E02003F06FF91620D1
:102AA00003F060F9002003F05DF91C2003F05AF9EF
:102AB000002003F057F9212003F054F9002003F01F
:102AC00051F9362003F04EF9002003F04BF946206F
:102AD00003F048F9002003F045F9522003F042F9D1
:102AE000002003F03FF9642003F03CF9002003F0DC
:102AF00039F97A2003F036F9002003F033F98B20FE
:102B000003F030F9002003F02DF9992003F02AF9A1
:102B1000002003F027F9A82003F024F9002003F097
:102B200021F9B92003F01EF9002003F01BF9C4209D
:102B300003F018F9002003F015F9CA2003F012F988
:102B4000002003F00FF9D22003F00CF9002003F06D
:102B500009F9D92003F006F9002003F003F9E02079
:102B600003F000F9002003F0FDF8F32003F0FAF879
:102B7000002003F0F7F8E12003F000F9162003F03D
:102B8000F1F8002003F0EEF81C2003F0EBF8002031
:102B900003F0E8F8222003F0E5F8002003F0E2F863
:102BA000362003F0DFF8002003F0DCF8452003F0C6
:102BB000D9F8002003F0D6F8522003F0D3F8002013
:102BC00003F0D0F8642003F0CDF8002003F0CAF839
:102BD0007A2003F0C7F8002003F0C4F88B2003F03C
:102BE000C1F8002003F0BEF8992003F0BBF80020E4
:102BF00003F0B8F8A82003F0B5F8002003F0B2F80D
:102C0000B92003F0AFF8002003F0ACF8C42003F0C3
:102C1000A9F8002003F0A6F8CA2003F0A3F80020CA
:102C200003F0A0F8D22003F09DF8002003F09AF8FA
:102C3000D82003F097F8002003F094F8E02003F088
:102C400091F8002003F08EF8F32003F08BF80020B9
:102C500003F088F8E22003F091F8052003F082F8F1
:102C6000002003F07FF80B2003F07CF8002003F035
:102C700079F81B2003F076F8002003F073F8342075
:102C800003F070F8002003F06DF8442003F06AF8B8
:102C9000002003F067F84F2003F064F8002003F0F1
:102CA00061F8612003F05EF8002003F05BF8792002
:102CB00003F058F8002003F055F8882003F052F88C
:102CC000002003F04FF8972003F04CF8002003F0A9
:102CD00049F8A62003F046F8002003F043F8B72097
:102CE00003F040F8002003F03DF8C22003F03AF86A
:102CF000002003F037F8C72003F034F8002003F079
:102D000031F8D12003F02EF8002003F02BF8D62064
:102D100003F028F8002003F025F8DD2003F022F866
:102D2000002003F01FF8F32003F01CF8002003F04C
:102D300019F8E32003F022F8052003F013F800202F
:102D400003F010F80A2003F00DF8002003F00AF851
:102D50001C2003F007F8002003F004F8332003F0F0
:102D600001F8002002F0FEFF442002F0FBFF0020EB
:102D700002F0F8FF502002F0F5FF002002F0F2FF11
:102D8000622002F0EFFF002002F0ECFF782002F05A
:102D9000E9FF002002F0E6FF882002F0E3FF0020B8
:102DA00002F0E0FF972002F0DDFF002002F0DAFFE2
:102DB000A62002F0D7FF002002F0D4FFB72002F0D7
:102DC000D1FF002002F0CEFFC22002F0CBFF002096
:102DD00002F0C8FFC72002F0C5FF002002F0C2FFCA
:102DE000D12002F0BFFF002002F0BCFFD52002F08E
:102DF000B9FF002002F0B6FFDD2002F0B3FF002093
:102E000002F0B0FFF32002F0ADFF002002F0AAFFB5
:102E1000E42002F0B3FF012002F0A4FF002002F042
:102E2000A1FF012002F09EFF002002F09BFF022084
:102E300002F098FF002002F095FF2A2002F092FF96
:102E4000002002F08FFF3C2002F08CFF002002F0F7
:102E500089FF4B2002F086FF002002F083FF5D20F7
:102E600002F080FF002002F07DFF742002F07AFF64
:102E7000002002F077FF842002F074FF002002F0AF
:102E800071FF932002F06EFF002002F06BFFA22082
:102E900002F068FF002002F065FFB32002F062FF3D
:102EA000002002F05FFFBE2002F05CFF002002F075
:102EB00059FFC42002F056FF002002F053FFCD203E
:102EC00002F050FF002002F04DFFD32002F04AFF35
:102ED000002002F047FFDD2002F044FF002002F056
:102EE00041FFF32002F03EFF002002F03BFFE5200F
:102EF00002F044FF002002F035FF002002F032FF14
:102F0000002002F02FFF002002F02CFF022002F030
:102F100029FF002002F026FF292002F023FF0020D5
:102F200002F020FF3C2002F01DFF002002F01AFFFB
:102F30004B2002F017FF002002F014FF5D2002F08A
:102F400011FF002002F00EFF742002F00BFF0020A2
:102F500002F008FF842002F005FF002002F002FFCB
:102F6000932002F0FFFE002002F0FCFEA22002F0FF
:102F7000F9FE002002F0F6FEB32002F0F3FE00207E
:102F800002F0F0FEBE2002F0EDFE002002F0EAFEAC
:102F9000C42002F0E7FE002002F0E4FECD2002F0A3
:102FA000E1FE002002F0DEFED32002F0DBFE002076
:102FB00002F0D8FEDC2002F0D5FE002002F0D2FEA6
:102FC000F32002F0CFFE002002F0CCFEE62002F05B
:102FD000D5FE112002F0C6FE002002F0C3FE342010
:102FE00002F0C0FE002002F0BDFE562002F0BAFE44
:102FF000002002F0B7FE762002F0B4FE002002F0BE
:10300000B1FE772002F0AEFE002002F0ABFE66209B
:1030100002F0A8FE002002F0A5FE882002F0A2FE29
:10302000002002F09FFE992002F09CFE002002F09A
:1030300099FEBB2002F096FE002002F093FE99203C
:1030400002F090FE002002F08DFE662002F08AFE63
:10305000002002F087FE552002F084FE002002F0DE
:1030600081FE552002F07EFE002002F07BFE45200E
:1030700002F078FE002002F075FE432002F072FE9E
:10308000002002F06FFE442002F06CFE002002F0EF
:1030900069FEE72002F072FE322002F063FE00209B
:1030A00002F060FE552002F05DFE002002F05AFEA4
:1030B000762002F057FE002002F054FE662002F057
:1030C00051FE002002F04EFE672002F04BFE002071
:1030D00002F048FE672002F045FE002002F042FEAA
:1030E000872002F03FFE002002F03CFE992002F013
:1030F00039FE002002F036FEBB2002F033FE002035
:1031000002F030FE992002F02DFE002002F02AFE8F
:10311000772002F027FE002002F024FE442002F077
:1031200021FE002002F01EFE562002F01BFE0020B1
:1031300002F018FE232002F015FE002002F012FE1D
:10314000332002F00FFE002002F00CFE452002F0BA
:1031500009FE002002F006FEE82002F00FFE00202B
:1031600002F000FE002002F0FDFD992002F0FAFDC1
:10317000002002F0F7FD872002F0F4FD002002F0AD
:10318000F1FD882002F0EEFD002002F0EBFD77203B
:1031900002F0E8FD002002F0E5FD662002F0E2FD0D
:1031A000002002F0DFFD882002F0DCFD002002F0AC
:1031B000D9FDAA2002F0D6FD002002F0D3FDBB20ED
:1031C00002F0D0FD002002F0CDFD992002F0CAFDF2
:1031D000002002F0C7FD662002F0C4FD002002F0CE
:1031E000C1FD552002F0BEFD002002F0BBFD5520C0
:1031F00002F0B8FD002002F0B5FD442002F0B2FD5F
:10320000002002F0AFFD442002F0ACFD002002F0EF
:10321000A9FD552002F0A6FD002002F0A3FDE92043
:1032200002F0ACFDAA2002F09DFD002002F09AFD04
:10323000002002F097FD002002F094FD002002F033
:103240009DFDAA2002F08EFDCF2002F097FD002008
:1032500002F088FD002002F085FD002002F082FDD2
:10326000002002F07FFD002002F07CFD002002F033
:1032700079FD002002F076FD002002F073FD0020B1
:1032800002F070FD002002F06DFD002002F06AFDEA
:10329000002002F067FD002002F064FD002002F033
:1032A00061FD002002F05EFD002002F05BFD0020C9
:1032B00002F058FDF02002F061FD002002F052FD06
:1032C000502002F04FFD002002F04CFD002002F0E3
:1032D00049FD002002F046FDF32002F04FFD0020E2
:1032E00002F040FDF92002F049FD062002F03AFD0F
:1032F000102002F037FD292002F034FD002002F0FA
:1033000031FD3A2002F03AFD552002F02BFD11204C
:1033100002F034FD642005F095FC292002F02EFD1A
:10332000352002F02BFD002002F01CFD512002F0A0
:1033300025FDFF2002F016FD532002F01FFD2C207A
:1033400002F010FD552002F019FD822002F00AFD66
:103350002C2002F013FD02F0E9B8FE48808845F207
:10336000105188427ED155214FF4704002F01CFD6F
:10337000AA214FF2010002F017FD52214FF2020084
:1033800002F012FD08214FF2030002F00DFD0121B1
:103390004FF2040002F008FD0D214FF4304002F01E
:1033A00003FD0D214BF2010002F0FEFC0D214BF25A
:1033B000020002F0F9FC34214FF4364002F0F4FC34
:1033C00034214BF2016002F0EFFC34214BF2026039
:1033D00002F0EAFC0D214FF4314002F0E5FC0D2132
:1033E0004BF2011002F0E0FC0D214BF2021002F052
:1033F000DBFC34214FF4374002F0D6FC34214BF291
:10340000017002F0D1FC34214BF2027002F0CCFCCE
:1034100000214FF4324002F0C7FC00214BF20120A2
:1034200002F0C2FC00214BF2022002F0BDFC24217C
:103430004FF4384002F0B8FC24214BF6010002F0B2
:10344000B3FC24214BF6020002F0AEFC01214FF444
:103450003F4002F0A9FC0F214FF4334002F0A4FCDE
:103460000F2100E0FEE34BF2013002F09DFC0F2142
:103470004BF2023002F098FC34214FF4394002F054
:1034800093FC34214BF6011002F08EFC34214BF6F4
:10349000021002F089FC08214FF4354002F084FC50
:1034A00008214BF2015002F07FFC08214BF2025040
:1034B00002F07AFC03214FF4424002F075FC242113
:1034C0004FF43A4002F070FC24214BF6012002F048
:1034D0006BFC24214BF6022002F066FC00214FF425
:1034E0003C4002F061FC78214BF6014002F05CFCAC
:1034F00000214BF6024002F057FC00214FF43D4002
:1035000002F052FC78214BF6015002F04DFC0021F4
:103510004BF6025002F048FC00214FF43E4002F00E
:1035200043FC64214BF6016002F03EFC00214FF4A5
:10353000514002F039FC33214DF2011002F034FC0D
:1035400000214DF2021002F02FFC34214DF2031045
:1035500002F02AFC00214DF2041002F025FC3A2171
:103560004DF2051002F020FC00214DF2061002F091
:103570001BFC4A214DF2071002F016FC00214DF20F
:10358000081002F011FC5C214DF2091002F00CFC55
:1035900000214DF20A1002F007FC81214DF20B10C0
:1035A00002F002FC00214DF20C1002F0FDFBA621FE
:1035B0004DF20D1002F0F8FB00214DF20E1002F05A
:1035C000F3FBE5214DF20F1002F0EEFB01214DF26D
:1035D000101002F0E9FB13214DF2111002F0E4FB90
:1035E00001214DF2121002F0DFFB54214DF21310B5
:1035F00002F0DAFB01214DF2141002F0D5FB82211A
:103600004DF2151002F0D0FB01214DF2161002F020
:10361000CBFBCA214DF2171002F0C6FB02214DF27E
:10362000181002F0C1FB00214DF2191002F0BCFB92
:1036300002214DF21A1002F0B7FB01214DF21B10CE
:1036400002F0B2FB02214DF21C1002F0ADFB34215E
:103650004DF21D1002F0A8FB02214DF21E1002F0E7
:10366000A3FB67214DF21F1002F09EFB02214DF2D9
:10367000201002F099FB84214DF2211002F094FBFE
:1036800002214DF2221002F08FFBA4214DF22310F3
:1036900002F08AFB02214DF2241002F085FBB721D3
:1036A0004DF2251002F080FB02214DF2261002F0AF
:1036B0007BFBCF214DF2271002F076FB02214DF269
:1036C000281002F071FBDE214DF2291002F06CFB94
:1036D00002214DF22A1002F067FBF2214DF22B106D
:1036E00002F062FB02214DF22C1002F05DFBFE2184
:1036F0004DF22D1002F058FB03214DF22E1002F076
:1037000053FB10214DF22F1002F04EFB03214DF21E
:10371000301002F049FB33214DF2311002F044FB2E
:1037200003214DF2321002F03FFB6D214DF23310B8
:1037300002F03AFB00214FF4524002F035FB3321F6
:103740004DF2012002F030FB00214DF2022002F088
:103750002BFB01E05003002034214DF2032002F046
:1037600023FB00214DF2042002F01EFB3A214DF212
:10377000052002F019FB00214DF2062002F014FB97
:103780004A214DF2072002F00FFB00214DF20820E4
:1037900002F00AFB5C214DF2092002F005FB00213A
:1037A0004DF20A2002F000FB81214DF20B2002F0C5
:1037B000FBFA00214DF20C2002F0F6FAA6214DF2A0
:1037C0000D2002F0F1FA00214DF20E2002F0ECFA89
:1037D000E5214DF20F2002F0E7FA01214DF2102011
:1037E00002F0E2FA13214DF2112002F0DDFA01217C
:1037F0004DF2122002F0D8FA54214DF2132002F0BB
:10380000D3FA01214DF2142002F0CEFA82214DF2BA
:10381000152002F0C9FA01214DF2162002F0C4FA77
:10382000CA214DF2172002F0BFFA02214DF21820F2
:1038300002F0BAFA00214DF2192002F0B5FA022185
:103840004DF21A2002F0B0FA01214DF21B2002F0D5
:10385000ABFA02214DF21C2002F0A6FA34214DF2FF
:103860001D2002F0A1FA02214DF21E2002F09CFA66
:1038700067214DF21F2002F097FA02214DF220201D
:1038800002F092FA84214DF2212002F08DFA0221F9
:103890004DF2222002F088FAA4214DF2232002F0FA
:1038A00083FA02214DF2242002F07EFAB7214DF274
:1038B000252002F079FA02214DF2262002F074FA56
:1038C000CF214DF2272002F06FFA02214DF228207D
:1038D00002F06AFADE214DF2292002F065FA022197
:1038E0004DF22A2002F060FAF2214DF22B2002F074
:1038F0005BFA02214DF22C2002F056FAFE214DF225
:103900002D2002F051FA03214DF22E2002F04CFA44
:1039100010214DF22F2002F047FA03214DF2302002
:1039200002F042FA33214DF2312002F03DFA032138
:103930004DF2322002F038FA6D214DF2332002F0C0
:1039400033FA00214FF4534002F02EFA33214DF2A6
:10395000013002F029FA00214DF2023002F024FA7F
:1039600034214DF2033002F01FFA00214DF20430F1
:1039700002F01AFA3A214DF2053002F015FA002150
:103980004DF2063002F010FA4A214DF2073002F0F3
:103990000BFA00214DF2083002F006FA5C214DF2DC
:1039A000093002F001FA00214DF20A3002F0FCF970
:1039B00081214DF20B3002F0F7F900214DF20C306D
:1039C00002F0F2F9A6214DF20D3002F0EDF90021DE
:1039D0004DF20E3002F0E8F9E5214DF20F3002F021
:1039E000E3F901214DF2103002F0DEF913214DF21E
:1039F000113002F0D9F901214DF2123002F0D4F960
:103A000054214DF2133002F0CFF901214DF2143060
:103A100002F0CAF982214DF2153002F0C5F90121F8
:103A20004DF2163002F0C0F9CA214DF2173002F003
:103A3000BBF902214DF2183002F0B6F900214DF227
:103A4000193002F0B1F902214DF21A3002F0ACF94E
:103A500001214DF21B3002F0A7F902214DF21C307A
:103A600002F0A2F934214DF21D3002F09DF902213D
:103A70004DF21E3002F098F967214DF21F3002F02E
:103A800093F902214DF2203002F08EF984214DF29B
:103A9000213002F089F902214DF2223002F084F93E
:103AA000A4214DF2233002F07FF902214DF224309F
:103AB00002F07AF9B7214DF2253002F075F90221B2
:103AC0004DF2263002F070F9CF214DF2273002F08E
:103AD0006BF902214DF2283002F066F9DE214DF239
:103AE000293002F061F902214DF22A3002F05CF92E
:103AF000F2214DF22B3002F057F902214DF22C3019
:103B000002F052F9FE214DF22D3002F04DF9032161
:103B10004DF22E3002F048F910214DF22F3002F014
:103B200043F903214DF2303002F03EF933214DF2DA
:103B3000313002F039F903214DF2323002F034F91C
:103B40006D214DF2333002F02FF900214FF4544033
:103B500002F02AF933214DF2014002F025F900214B
:103B60004DF2024002F020F934214DF2034002F000
:103B70001BF900214DF2044002F016F93A214DF2F2
:103B8000054002F011F900214DF2064002F00CF957
:103B90004A214DF2074002F007F900214DF208409A
:103BA00002F002F95C214DF2094002F0FDF800211B
:103BB0004DF20A4002F0F8F881214DF20B4002F07C
:103BC000F3F800214DF20C4002F0EEF8A6214DF280
:103BD0000D4002F0E9F800214DF20E4002F0E4F849
:103BE000E5214DF20F4002F0DFF801214DF21040C7
:103BF00002F0DAF813214DF2114002F0D5F801215C
:103C00004DF2124002F0D0F854214DF2134002F070
:103C1000CBF801214DF2144002F0C6F882214DF29A
:103C2000154002F0C1F801214DF2164002F0BCF837
:103C3000CA214DF2174002F0B7F802214DF21840A8
:103C400002F0B2F800214DF2194002F0ADF8022165
:103C50004DF21A4002F0A8F801214DF21B4002F08B
:103C6000A3F800E004E302214DF21C4002F09CF8AE
:103C700034214DF21D4002F097F802214DF21E4012
:103C800002F092F867214DF21F4002F08DF80221F8
:103C90004DF2204002F088F884214DF2214002F0DC
:103CA00083F802214DF2224002F07EF8A4214DF269
:103CB000234002F079F802214DF2244002F074F81A
:103CC000B7214DF2254002F06FF802214DF2264057
:103CD00002F06AF8CF214DF2274002F065F8022188
:103CE0004DF2284002F060F8DE214DF2294002F04A
:103CF0005BF802214DF22A4002F056F8F2214DF213
:103D00002B4002F051F802214DF22C4002F04CF809
:103D1000FE214DF22D4002F047F803214DF22E40D6
:103D200002F042F810214DF22F4002F03DF803213D
:103D30004DF2304002F038F833214DF2314002F0BC
:103D400033F803214DF2324002F02EF86D214DF28E
:103D5000334002F029F800214FF4554002F024F8D6
:103D600033214DF2015002F01FF800214DF20250B4
:103D700002F01AF834214DF2035002F015F8002138
:103D80004DF2045002F010F83A214DF2055002F0C5
:103D90000BF800214DF2065002F006F84A214DF2D0
:103DA000075002F001F800214DF2085001F0FCFF2D
:103DB0005C214DF2095001F0F7FF00214DF20A504D
:103DC00001F0F2FF81214DF20B5001F0EDFF0021D7
:103DD0004DF20C5001F0E8FFA6214DF20D5001F01C
:103DE000E3FF00214DF20E5001F0DEFFE5214DF220
:103DF0000F5001F0D9FF01214DF2105001F0D4FF16
:103E000013214DF2115001F0CFFF01214DF212505C
:103E100001F0CAFF54214DF2135001F0C5FF0121FA
:103E20004DF2145001F0C0FF82214DF2155001F007
:103E3000BBFF01214DF2165001F0B6FFCA214DF231
:103E4000175001F0B1FF02214DF2185001F0ACFF04
:103E500000214DF2195001F0A7FF02214DF21A5036
:103E600001F0A2FF01214DF21B5001F09DFF022144
:103E70004DF21C5001F098FF34214DF21D5001F01D
:103E800093FF02214DF21E5001F08EFF67214DF28B
:103E90001F5001F089FF02214DF2205001F084FFF4
:103EA00084214DF2215001F07FFF02214DF222507A
:103EB00001F07AFFA4214DF2235001F075FF022199
:103EC0004DF2245001F070FFB7214DF2255001F062
:103ED0006BFF02214DF2265001F066FFCF214DF21B
:103EE000275001F061FF02214DF2285001F05CFFE4
:103EF000DE214DF2295001F057FF02214DF22A50E8
:103F000001F052FFF2214DF22B5001F04DFF022142
:103F10004DF22C5001F048FFFE214DF22D5001F0E2
:103F200043FF03214DF22E5001F03EFF10214DF2D0
:103F30002F5001F039FF03214DF2305001F034FFD2
:103F400033214DF2315001F02FFF03214DF2325059
:103F500001F02AFF6D214DF2335001F025FF0021C1
:103F60004FF4564001F020FF33214DF2016001F083
:103F70001BFF00214DF2026001F016FF34214DF2CB
:103F8000036001F011FF00214DF2046001F00CFF0D
:103F90003A214DF2056001F007FF00214DF2066065
:103FA00001F002FF4A214DF2076001F0FDFE002101
:103FB0004DF2086001F0F8FE5C214DF2096001F05D
:103FC000F3FE00214DF20A6001F0EEFE81214DF278
:103FD0000B6001F0E9FE00214DF20C6001F0E4FEFF
:103FE000A6214DF20D6001F0DFFE00214DF20E60C2
:103FF00001F0DAFEE5214DF20F6001F0D5FE01215E
:104000004DF2106001F0D0FE13214DF2116001F06D
:10401000CBFE01214DF2126001F0C6FE54214DF29B
:10402000136001F0C1FE01214DF2146001F0BCFEED
:1040300082214DF2156001F0B7FE01214DF21660AC
:1040400001F0B2FECA214DF2176001F0ADFE02216F
:104050004DF2186001F0A8FE00214DF2196001F048
:10406000A3FE02214DF21A6001F09EFE01214DF2E5
:104070001B6001F099FE02214DF21C6001F094FEDC
:1040800034214DF21D6001F08FFE02214DF21E60C1
:1040900001F08AFE67214DF21F6001F085FE0221CA
:1040A0004DF2206001F080FE84214DF2216001F08C
:1040B0007BFE02214DF2226001F076FEA4214DF23A
:1040C000236001F071FE02214DF2246001F06CFECC
:1040D000B7214DF2256001F067FE02214DF2266006
:1040E00001F062FECF214DF2276001F05DFE02215A
:1040F0004DF2286001F058FEDE214DF2296001F0FA
:1041000053FE02214DF22A6001F04EFEF2214DF2E3
:104110002B6001F049FE02214DF22C6001F044FEBB
:10412000FE214DF22D6001F03FFE03214DF22E6085
:1041300001F03AFE10214DF22F6001F035FE03210F
:104140004DF2306001F030FE33214DF2316001F06C
:104150002BFE03214DF2326001F026FE6D214DF25F
:10416000336001F021FE55214FF4704001F01CFE38
:10417000AA214FF2010001F017FE52214FF2020076
:1041800001F012FE08214FF2030001F00DFE0021A4
:104190004FF2040001F008FECC214FF4314001F051
:1041A00003FE00214BF2011001F0FEFD05214FF44A
:1041B000364001F0F9FD70214FF4374001F0F4FD75
:1041C00070214BF2017001F0EFFD01214FF43840F6
:1041D00001F0EAFD03214BF6010001F0E5FD0321AA
:1041E0004BF6020001F0E0FD03214BF6030001F065
:1041F000DBFD02214FF43C4001F0D6FD00214BF6DF
:10420000014001F0D1FD00214BF6024001F0CCFD50
:10421000D0214FF4494001F0C7FD02214CF60110B6
:1042200001F0C2FD50214CF6021001F0BDFD5021FD
:104230004CF6031001F0B8FD50214CF6041001F0CB
:10424000B3FD00214FF4545001F0AEFD55214FF461
:10425000685001F0A9FD4FF4885001F08FFD7820DF
:1042600004F00CFD4FF4245001F088FD01F05EB91C
:10427000FE48808849F2253188427DD147F6F00119
:10428000E52001F091FD4FF48071012001F08CFDDB
:104290004FF4E061022001F087FD41F2300103207C
:1042A00001F082FD0021042001F07EFD40F2022198
:1042B000082001F079FD0021092001F075FD0021A1
:1042C0000A2001F071FD00210C2001F06DFD00219C
:1042D0000D2001F069FD00210F2001F065FD002196
:1042E000102001F061FD0721112001F05DFD00218A
:1042F000122001F059FD0021132001F055FD00218D
:10430000072001F051FD41F29061102001F04CFDB9
:1043100040F22721112001F047FD9D21122001F0DC
:1043200043FD4FF4C851132001F03EFD2521292003
:1043300001F03AFD0D212B2001F036FD0721302040
:1043400001F032FD40F20331312001F02DFD032157
:10435000322001F029FD40F20621352001F024FD34
:104360000821362001F020FD40F20641372001F0FF
:104370001BFD4FF4417100E058E0382001F014FDBE
:104380000721392001F010FD40F202613C2001F0CC
:104390000BFD08213D2001F007FD0021502001F018
:1043A00003FDEF21512001F0FFFC0021522001F01C
:1043B000FBFC40F23F11532001F0F6FC4FF4274183
:1043C000602001F0F1FC0121612001F0EDFC0021F1
:1043D0006A2001F0E9FC0021802001F0E5FC0021C9
:1043E000812001F0E1FC0021822001F0DDFC0021B0
:1043F000832001F0D9FC0021842001F0D5FC0021AC
:10440000852001F0D1FC1021902001F0CDFC4FF46B
:10441000C061922001F0C8FC40F23311072001F086
:10442000C3FC2221002001F0BFFC1FE78F488088D9
:1044300049F2283188427DD141F28F01EC2001F010
:10444000B3FC41F23421EF2001F0AEFC4FF4807157
:10445000012001F0A9FC4FF4E061022001F0A4FC6E
:1044600041F23001032001F09FFC0021042001F003
:104470009BFC40F20221082001F096FC002109205B
:1044800001F092FC00210A2001F08EFC01210C2099
:1044900001F08AFC00210D2001F086FC00210F2094
:1044A00001F082FC0021102001F07EFC0721112088
:1044B00001F07AFC0021122001F076FC002113208B
:1044C00001F072FC0121072001F06EFC322004F0A3
:1044D000B9FB41F29041102001F066FC40F2272127
:1044E000112001F061FC322004F0ACFB8A21122083
:1044F00001F05AFC322004F0A5FB4FF4D0511320F8
:1045000001F052FC0621292001F04EFC0D212B2048
:1045100001F04AFC322004F095FB0021202001F03C
:1045200043FC0021212001F03FFC322004F08AFBF3
:10453000002100E075E0302001F036FC40F204611B
:10454000312001F031FC40F20531322001F02CFC29
:104550000021352001F028FC40F60941362001F009
:1045600023FC4FF40171372001F01EFC40F20131B1
:10457000382001F019FC40F20771392001F014FCD9
:1045800000213C2001F010FC40F60A213D2001F002
:104590000BFC322004F056FB0021502001F004FCFB
:1045A000EF21512001F000FC0021522001F0FCFB22
:1045B00040F23F11532001F0F7FB4FF427416020F8
:1045C00001F0F2FB0121612001F0EEFB00216A20E5
:1045D00001F0EAFB0021802001F0E6FB00218120B0
:1045E00001F0E2FB0021822001F0DEFB00218320AC
:1045F00001F0DAFB0021842001F0D6FB00218520A8
:1046000001F0D2FB1021902001F0CEFB4FF4C061ED
:10461000922001F0C9FB40F23311072001F0C4FBE6
:1046200024E61248808849F2203188427ED1002158
:10463000084601F0B9FB4FF48071012001F0B4FB92
:104640004FF4E061022001F0AFFB41F230010320A2
:1046500001F0AAFB0021042001F0A6FB40F2022198
:10466000082001F0A1FB0021092001E050030020F7
:1046700001F09AFB00210A2001F096FB01210C2099
:1046800001F092FB00210D2001F08EFB00210F2094
:1046900001F08AFB322004F0D5FA40F20111072024
:1046A00001F082FB322004F0CDFA4FF48651102045
:1046B00001F07AFB0721112001F076FB4FF488719D
:1046C000122001F071FB4FF43061132001F06CFBFC
:1046D0000021292001F068FB44F210012B2001F099
:1046E00063FB0021502001F05FFBEF21512001F01E
:1046F0005BFB0021522001F057FB40F23F11532099
:1047000001F052FB4FF41C51602001F04DFB0121E0
:10471000612001F049FB00216A2001F045FB0021E6
:10472000802001F041FB0021812000E030E001F019
:104730003BFB0021822001F037FB0021832001F0A8
:1047400033FB0021842001F02FFB0021852001F0A4
:104750002BFB1021902001F027FB0021922001F07B
:1047600023FB0121932001F01FFB4FF4887195205A
:1047700001F01AFB0021972001F016FB0021982080
:1047800001F012FB40F27311072001F00DFB6DE503
:10479000FE48808849F2313188427DD141F21401CE
:1047A000E72001F001FB4FF48071012001F0FCFAD9
:1047B0004FF40071022001F0F7FA41F238010320B2
:1047C00001F0F2FA40F20221082001F0EDFA002196
:1047D000092001F0E9FA00210A2001F0E5FA0021A0
:1047E0000C2001F0E1FA00210D2001F0DDFA00219A
:1047F0000F2001F0D9FA0021102001F0D5FA07218D
:10480000112001F0D1FA0021122001F0CDFA00218F
:10481000132001F0C9FAC82004F014FA41F29061A3
:10482000102001F0C1FA40F22721112001F0BCFA5A
:10483000322004F007FA0C21122001F0B5FA3220E0
:1048400004F000FA4FF40061132001F0ADFA1121D9
:10485000292001F0A9FA0B212B2001F0A5FA322022
:1048600004F0F0F90021202001F09EFA40F23F11FF
:10487000212001F099FA0021302001F095FA4FF43F
:104880008371312001F090FA0021322001F08CFA7E
:104890004FF40171352000E064E001F085FA41F247
:1048A0000A61362001F080FA40F20771372001F0EA
:1048B0007BFA4FF48371382001F076FA40F20771E9
:1048C000392001F071FA40F202413C2001F06CFA0B
:1048D00040F60F413D2001F067FA0021502001F021
:1048E00063FAEF21512001F05FFA0021522001F01C
:1048F0005BFA40F23F11532001F056FA4FF41C517D
:10490000602001F051FA0121612001F04DFA0021EF
:104910006A2001F049FA0021802001F045FA0021C7
:10492000812001F041FA0021822001F03DFA0021AE
:10493000832001F039FA0021842001F035FA0021AA
:10494000852001F031FA1021902001F02DFA4FF46A
:10495000C061922001F028FA40F23311072001F0E3
:1049600023FA83E48948808845F2084188427DD152
:104970004FF48071012001F017FA4FF4E06102203A
:1049800001F012FA41F23001032001F00DFA00218A
:10499000042001F009FA40F20721082001F004FA8E
:1049A0000021092001F000FA00210A2001F0FCF9A1
:1049B00000210C2001F0F8F900210D2001F0F4F99C
:1049C00000210F2001F0F0F9142004F03BF941F22E
:1049D000B061102001F0E8F90121112001F0E4F9A3
:1049E0000121172001F0E0F94FF49C71122001F031
:1049F000DBF94FF40061132001F0D6F909212920D9
:104A000001F0D2F909212A2001F0CEF90021A420D9
:104A100001F0CAF90021502001F0C6F9EF21512020
:104A200001F0C2F90021522001F0BEF940F23F111D
:104A3000532001F0B9F94FF41C51602001F0B4F992
:104A40000121612001F0B0F900216A2001F0ACF9E8
:104A50000021802001F0A8F90021812001F0A4F9B3
:104A60000021822001F0A0F9002100E024E0832051
:104A700001F09AF90021842001F096F900218520A7
:104A800001F092F91321902001F08EF9002192207B
:104A900001F08AF90321932001F086F94FF488711F
:104AA000952001F081F940F27311072001F07CF9A3
:104AB000322004F0C7F8B8E43448808841F2055148
:104AC00088427DD10021072001F06EF9322004F0E8
:104AD000B9F84FF48E71122001F066F90121A4207B
:104AE00001F062F90F21082001F05EF908210A2087
:104AF00001F05AF908210D2001F056F940F2077132
:104B0000302001F051F90721312001F04DF940F238
:104B10000361322001F048F94FF4E061332001F0E5
:104B200043F940F20221342001F03EF90221352000
:104B300001F03AF941F60F71362001F035F940F2F3
:104B40000771372001F030F90021382001F02CF9ED
:104B50000021392001F028F940F207713A2001F0D4
:104B600023F900213B2001F01FF907213C2001F02F
:104B70001BF900213D2001F017F9322004F062F802
:104B80000121072001F010F9012101E0500300206C
:104B9000172001F009F9322004F054F84FF4BD5108
:104BA000102001F001F940F21721112001F0FCF86A
:104BB0004FF48F71122001F0F7F84FF4706100E0AC
:104BC00098E0132001F0F0F800212A2001F0ECF821
:104BD0000A21292001F0E8F84FF49F71122001F01A
:104BE000E3F80021502001F0DFF8EF21512001F01F
:104BF000DBF80021522001F0D7F840F23F1153209A
:104C000001F0D2F84FF41C51602001F0CDF80121E1
:104C1000612001F0C9F800216A2001F0C5F80021E7
:104C2000802001F0C1F80021812001F0BDF80021B1
:104C3000822001F0B9F80021832001F0B5F80021AD
:104C4000842001F0B1F80021852001F0ADF8132196
:104C5000902001F0A9F84FF44071922001F0A4F8DF
:104C60000521932001F0A0F80021952001F09CF887
:104C70000021972001F098F80021982001F094F885
:104C80004FF48071012001F08FF84FF4E0610220B1
:104C900001F08AF841F23801032001F085F8002183
:104CA000042001F081F800210C2001F07DF80021A2
:104CB0000F2001F079F80021202001F075F8002183
:104CC000212001F071F82121072001F06DF8142056
:104CD00003F0B8FF6121072001F066F8142003F00B
:104CE000B1FF40F27311072001F05EF8142003F0C9
:104CF000A9FF95E4FE4880884BF2055188427CD19B
:104D00000021084601F050F80021084601F04CF857
:104D10000021084601F048F80021084601F044F857
:104D20000121A42001F040F8142003F08BFF4FF480
:104D30001C51602001F038F840F20221082001F0F7
:104D400033F84FF40571302001F02EF843F215715D
:104D5000312001F029F840F20461322001F024F8FA
:104D600040F61661332001F01FF842F21121342081
:104D700001F01AF84FF4A851352001F015F848F267
:104D80000751362001F010F841F20741372001F0B9
:104D90000BF841F20341382001F006F820213920B8
:104DA00001F002F81A21902000F0FEFF00211020EF
:104DB00000F0FAFF0721112000F0F6FF0021122079
:104DC00000F0F2FF0021132000F0EEFF142003F0AA
:104DD00039FF4FF4E661102000F0E6FF40F2371192
:104DE000112000F0E1FF142003F02CFF4FF4DC71E0
:104DF000122000F0D9FF142000E085E003F022FF2C
:104E00004FF47061132000F0CFFF80212A2000F0C2
:104E1000CBFF4821292000F0C7FF142003F012FF28
:104E20004FF48071012000F0BFFF4FF4E0610220D9
:104E300000F0BAFF41F23801032000F0B5FF40F264
:104E40000221082000F0B0FF00210A2000F0ACFF92
:104E500000210C2000F0A8FF00210D2000F0A4FF8D
:104E600030210E2000F0A0FF0021502000F09CFF18
:104E7000EF21512000F098FF0021522000F094FF14
:104E800040F23F11532000F08FFF4FF41C5160207F
:104E900000F08AFF0121612000F086FF00216A20D6
:104EA00000F082FF1121902000F07EFF4FF4C061DE
:104EB000922000F079FF40F20241932000F074FF4D
:104EC0000221942000F070FF142003F0BBFE0121AA
:104ED000072000F069FF142003F0B4FE61210720D1
:104EE00000F062FF40F27311072000F05DFF002127
:104EF000202000F059FF0021212000F055FF222141
:104F0000002000F051FF11E3794880884CF20551F0
:104F100088427CD10021084600F046FF0021084667
:104F200000F042FF142003F08DFE0021084600F03F
:104F30003BFF0021084600F037FF0021084600F043
:104F400033FF0021084600F02FFF0121A42000F0CC
:104F50002BFF142003F076FE4FF41C51602000F06C
:104F600023FF40F60601082000F01EFF40F2037107
:104F7000302000F019FF0121312000F015FF04213D
:104F8000322000F011FF4FF48171332000F00CFF4C
:104F90004FF44071342000F007FF40F20311352038
:104FA00000F002FF1F21362000F0FEFE40F20371E8
:104FB000372000F0F9FE0121382000F0F5FE042131
:104FC000392000F0F1FE1521902000F0EDFE4FF4A5
:104FD0008261102000F0E8FE40F24721112000F02D
:104FE000E3FE4FF4DE71122000F0DEFE4FF460614C
:104FF000132000F0D9FE782003F024FE4FF48071D6
:10500000012000F0D1FE4FF40071022000E052E0D8
:1050100000F0CAFE41F23001032000F0C5FE082175
:105020000A2000F0C1FE00210C2000F0BDFE20216E
:105030000E2000F0B9FE00210F2000F0B5FE002187
:10504000202000F0B1FE0021212000F0ADFE3D2126
:105050002A2000F0A9FE142003F0F4FD2D212920C0
:1050600000F0A2FE0021502000F09EFE4DF2EF0164
:10507000512000F099FE0021522000F095FE40F2F0
:105080003F11532000F090FE0021612000F08CFEC3
:1050900000216A2000F088FE4FF44071922000F059
:1050A00083FE0521932000F07FFE4FF480710720DE
:1050B00000F07AFE3AE20E48808844F2315188428C
:1050C0007ED10121002000F06FFE0A2003F0BAFD1E
:1050D00041F22861102000F067FE0E21122000F03E
:1050E00063FE40F63921132000F05EFE0A2001E045
:1050F0005003002003F0A6FD4021112000F054FED3
:105100005021152000F050FE0A2003F09BFD1E21C7
:10511000122000F049FE0A2003F094FD4FF4B15133
:10512000102000F041FE42F63921132000F03CFE31
:105130000A2003F087FD4FF48071012000F034FE57
:105140004FF44071022000F02FFE41F2380103209D
:1051500000F02AFE40F20221082000F025FE08217E
:105160000A2000F021FE0021302000F01DFE40F258
:105170000241312000F018FE4FF48371322000F01C
:1051800013FE40F20351332000F00EFE4FF4827103
:10519000342000F009FE40F20131352000F004FE19
:1051A00040F20771362000F0FFFD40F20531372054
:1051B00000F0FAFD4FF40271382000F0F5FD00E038
:1051C0003EE040F60B71392000F0EEFD0221412057
:1051D00000F0EAFD4FF41C51602000F0E5FD0121D4
:1051E000612000F0E1FD4FF40471902000F0DCFD3F
:1051F0004FF48571922000F0D7FD0421932000F038
:10520000D3FD4FF48071A02000F0CEFD01210720D6
:1052100000F0CAFD2121072000F0C6FD2321072050
:1052200000F0C2FD3321072000F0BEFD40F2331133
:10523000072000F0B9FD0021A02000F0B5FD75E1C8
:10524000C048808844F2355188427CD130211520F5
:1052500000F0AAFD10219A2000F0A6FD20211120C7
:1052600000F0A2FD43F22841102000F09DFD022134
:10527000122000F099FD41F23801132000F094FD56
:10528000282003F0DFFC1221084600F08DFD2820C5
:1052900003F0D8FC43F22041102000F085FD43F2DA
:1052A0003801132000F080FD462003F0CBFC0021E4
:1052B000302000F079FD40F20241312000F074FD11
:1052C00040F20731322000F06FFD4FF4417133207E
:1052D00000F06AFD0421342000F066FD40F2014137
:1052E000352000F061FD40F20771362000F05CFDD2
:1052F00040F20531372000F057FD4FF4C2613820ED
:1053000000F052FD4FF4C261392000F04DFD4FF422
:105310008071012000F048FD4FF44071022000F040
:1053200043FD41F23001032000F03EFD40F608014C
:10533000082000F039FD08210A2000F035FD4FF467
:105340001C51602000E033E000F02EFD01216120BF
:1053500000F02AFD4FF49F71902000F025FD4FF4DE
:105360008071922000F020FD4FF48071932000F0B6
:105370001BFD4FF44051A02000F016FD1021A3208A
:1053800000F012FD0121072000F00EFD2121072071
:1053900000F00AFD2321072000F006FD332107203D
:1053A00000F002FD40F23311072000F0FDFCBDE0EB
:1053B0006448808841F663118842F8D1E22000F009
:1053C000DDFC1D2000F0CEFC022000F0CBFC042010
:1053D00000F0C8FC642003F051FCE02000F0CEFC9B
:1053E000012000F0BFFC0A2003F02CFCE02000F0BC
:1053F000C5FC032000F0B6FC0C2003F023FC0120C8
:1054000000F0BCFC0A2003F01DFCE62000F0B6FC16
:105410002F2000F0A7FCFF2000F0A4FCFF2000F0EC
:10542000A1FCB02000F0AAFC202000F09BFC002092
:1054300000F098FC032000F095FC40F21F3000F0D3
:1054400091FC012000F08EFC40F2DF1000F08AFC9D
:10545000002000F087FCB42000F090FC042000F055
:1054600081FC40F21F4000F07DFC002000F07AFC3F
:105470002E2000F077FC002000F074FC002000F0EB
:1054800071FC002000F06EFC002000F06BFCB620E8
:1054900000F074FC022000F065FC4FF4037000F093
:1054A00061FC002000F05EFC172000F05BFC152082
:1054B00000F058FC002000F055FC002000F052FCE9
:1054C000F02000F05BFC032000F04CFC292000F0F1
:1054D00055FCD02000F052FC002000F043FCBE2020
:1054E00000F04CFC052000F03DFCFE2000F03AFCF2
:1054F000012000F037FC002000F034FC002000F018
:1055000031FC002000F02EFCB82000F037FC032016
:1055100000F028FC012000F025FCBA2000F02EFC51
:10552000012000F01FFC642000F032F80020FCF79E
:1055300077F90120044908604FF6FF70FCF73AF94B
:105540001CBD000050030020BC82404210B5024642
:10555000012000E050430B00A1F10104E1B2F9D1B8
:1055600010BD000008B5034800880090BDF8000099
:1055700008BD00008000006C10B50446204600F015
:10558000FDFB052003F07AFBFFF7ECFF10BD0000E8
:1055900070B52DED048B0446BE2000F0EFFB052016
:1055A00000F0E0FB204607F0E0FD41EC190B9FED19
:1055B0000E0B53EC102B07F0EBFD41EC180B07F032
:1055C000A7FD85B2284600F0CDFB012000F0CAFB04
:1055D000FF2000F0C7FB002000F0C4FB002000F01B
:1055E000C1FBBDEC048B70BD6666666666660440F2
:1055F000F0B5054600240027B748807901280BD173
:10560000B548808846F60401884205D0B2488088B3
:1056100041F66311884208D1AF488079F0B9AE48AD
:10562000808841F66311884218D1082D15D2DFE831
:1056300005F00406080A0C0E101206250DE00725D9
:105640000BE0042509E0052507E0012505E000251C
:1056500003E0032501E0022500BF00BF9E488088CB
:1056600049F24131884217D09B48808846F60401B0
:10567000884211D09848808845F2103188420BD07A
:105680009548808845F21051884205D0924880881C
:1056900041F6631188427DD1082D1CD2DFE805F068
:1056A0000406090C0F12151800BF14E044F0800422
:1056B00011E044F040040EE044F0C0040BE044F07C
:1056C000200408E044F0600405E044F0A00402E097
:1056D00044F0E00400BF00BF7F48808845F21051CD
:1056E000884202D14FF4585700E036277A48808824
:1056F00045F2103188420DD07748808845F210512C
:10570000884207D07448808841F66311884201D0EE
:1057100044F008047048808846F60401884201D1AC
:1057200044F002042146384600F03EFB6A48808877
:1057300041F6631188421DD004F0200068B166482C
:10574000008865494988884214DA63480688408899
:1057500061490880084646800CE05F4800885E4941
:105760004988884206DD5C48068840885A49088096
:10577000084646805848808845F21051884254D1E6
:105780005549488900F0FAFA002000F0EBFA524936
:10579000498900E078E0491C88B200F0EFFA002067
:1057A00000F0E0FA4C494989891C88B200F0E6FA19
:1057B00049490988491EC1F30F2000F0D3FA464930
:1057C0004989C91C88B200F0D9FA43490978491EB1
:1057D000C8B200F0C7FA4049888900F0CFFA00202B
:1057E00000F0C0FA3C498989491C88B200F0C6FA29
:1057F000002000F0B7FA38498989891C88B200F086
:10580000BDFA35494988491EC1F30F2000F0AAFAB4
:1058100031498989C91C88B200F0B0FA2E498978CB
:10582000491EC8B200F09EFA55E02B49488900F0A5
:10583000A5FA002000F096FA002000F093FA26491D
:105840000988491EC1F30F2000F08CFA224909781B
:10585000491EC8B200F086FA1F49888900F08EFA06
:10586000002000F07FFA002000F07CFA1A494988F5
:10587000491EC1F30F2000F075FA17498978491EB7
:10588000C8B200F06FFA26E0082D1CD2DFE805F060
:1058900004070A0D0F12151844F0300413E044F009
:1058A000100410E044F020040DE000BF0BE044F0D1
:1058B000380408E044F0280405E044F0180402E04D
:1058C00044F0080400BF00BF032744F4805421467D
:1058D000384600F069FAF0BD5003002030B50446A8
:1058E0000D466748808849F24131884205D06448B6
:1058F000808845F21031884214D16149488900F00E
:105900003DFA201200F02EFAE0B200F02BFA5C49CA
:10591000888900F033FA281200F024FAE8B200F087
:1059200021FAABE05648808846F6040188421DD132
:1059300053488079012804D151480088401E001B3B
:1059400084B24F49488900F019FA201200F00AFA8F
:10595000E0B200F007FA4A49888900F00FFA2812ED
:1059600000F000FAE8B200F0FDF987E044488088D2
:1059700041F66311884247D141488079A8B940482F
:105980000088401E001B84B23D49488900F0F6F9AA
:10599000002000F0E7F9002000F0E4F9201200F008
:1059A000E1F9E0B200F0DEF916E03549488900F08F
:1059B000E5F9201200F0D6F9E0B200F0D3F9304951
:1059C0000988491EC1F30F2000F0CCF92C49097851
:1059D000491EC8B200F0C6F92949888900F0CEF9FD
:1059E000281200F0BFF9E8B200F0BCF92449498858
:1059F000491EC1F30F2000F0B5F921498978491EED
:105A0000C8B200F0AFF939E01D48808845F2105166
:105A1000884220D11A49488900F0B0F9201200F0DC
:105A2000A1F917494989491C88B200F0A7F9E0B2E9
:105A300000F098F91249888900F0A0F9281200F0C6
:105A400091F90F498989491C88B200F097F9E8B2A9
:105A500000F088F912E00A488079012804D108484A
:105A60000088401E001B84B205494889214600F089
:105A70009BF903498889294600F096F930BD00005A
:105A8000500300202DE9F84F80460E4617461C466D
:105A9000B3462046E31704EB5373DB1021464FEA6D
:105AA000E47C04EB5C7C4FEAEC0CA4EBCC0CBCF18A
:105AB000000F02D04FF0010C01E04FF0000C6344E6
:105AC000224604EBD27C4FEA6C0C03FB0CF3DBB2F6
:105AD0000093A7F12000C7B2002556E00C2C07D197
